:100000000C9470000C947D050C9456050C9498008B
:100010000C9498000C9498000C9498000C94980000
:100020000C9498000C9498000C9498000C9462071F
:100030000C9498000C9498000C94DD080C94980093
:100040000C940C050C9498000C94D4020C94AE0201
:100050000C9498000C9498000C9498000C949800C0
:100060000C9498000C949800FE0EE3142F0F7C0F54
:10007000E314880FBC0F6111C6114E139013C813FF
:10008000FC131F1400000008000201000003040715
:100090000000000000000000000000002300260017
:1000A000290000000000250028002B0000000000AF
:1000B000240027002A0004040404040404040202A7
:1000C00002020202030303030303010204081020D7
:1000D0004080010204081020010204081020F915D4
:1000E00011241FBECFEFD8E0DEBFCDBF13E0A0E0EC
:1000F000B1E0E6E1F4E302C005900D92AE32B10743
:10010000D9F725E0AEE2B3E001C01D92A337B207F4
:10011000E1F710E0C0E7D0E004C02197FE010E94A3
:10012000F519CF36D107C9F70E94580C0C94091A5B
:100130000C940000CF92DF92EF92FF920F931F93E7
:10014000CF93DF936C017A018B01C0E0D0E0CE1534
:10015000DF0589F0D8016D918D01D601ED91FC91FB
:100160000190F081E02DC6010995892B11F47E01E3
:1001700002C02196ECCFC701DF91CF911F910F9163
:10018000FF90EF90DF90CF900895089580E090E089
:100190000895FC01538D448D252F30E0842F90E08D
:1001A000821B930B541710F0CF9608950197089572
:1001B000FC01918D828D981761F0828DDF01A80F6F
:1001C000B11D5D968C91928D9F5F9F73928F90E091
:1001D00008958FEF9FEF0895FC01918D828D981700
:1001E00031F0828DE80FF11D858D90E008958FEF3D
:1001F0009FEF0895FC01918D228D892F90E0805C06
:100200009F4F821B91098F73992708958BE793E085
:100210000E94FA0021E0892B09F420E0822F089542
:10022000FC01848DDF01A80FB11DA35ABF4F2C9193
:10023000848D90E001968F739927848FA689B78962
:100240002C93A089B1898C9180648C93938D848D3B
:10025000981306C00288F389E02D80818F7D80830A
:100260000895EF92FF920F931F93CF93DF93EC01CA
:1002700081E0888F9B8D8C8D981305C0E889F98962
:10028000808185FD24C0F62E0B8D10E00F5F1F4F7F
:100290000F731127E02E8C8DE8120CC00FB607FCEF
:1002A000FACFE889F989808185FFF5CFCE010E94D8
:1002B0001001F1CF8B8DFE01E80FF11DE35AFF4FC6
:1002C000F0820B8FEA89FB898081806207C0EE890A
:1002D000FF896083E889F98980818064808381E077
:1002E00090E0DF91CF911F910F91FF90EF900895D3
:1002F000CF93DF93EC01888D8823C9F0EA89FB89CD
:10030000808185FD05C0A889B9898C9186FD0FC0C3
:100310000FB607FCF5CF808185FFF2CFA889B98998
:100320008C9185FFEDCFCE010E941001E7CFDF91C8
:10033000CF91089580E090E0892B29F00E9406017A
:1003400081110C9400000895833081F028F48130ED
:1003500099F08230A1F008958730A9F08830B9F083
:100360008430D1F4809180008F7D03C08091800023
:100370008F7780938000089584B58F7702C084B50D
:100380008F7D84BD08958091B0008F7703C08091E8
:10039000B0008F7D8093B00008953FB7F8948091AE
:1003A000770390917803A0917903B0917A0326B5F1
:1003B000A89B05C02F3F19F00196A11DB11D3FBF9D
:1003C000BA2FA92F982F8827820F911DA11DB11D2B
:1003D000BC01CD0142E0660F771F881F991F4A9527
:1003E000D1F7089508958CE108959FB7F89480910E
:1003F0006F03882319F0815080936F0380916F03FE
:10040000811105C08CB58F7B8CBD10926E039FBF90
:1004100008958CB58F778CBD08958CB580688CBDA0
:1004200008956EBD00000DB407FEFDCF8EB5089592
:100430009CB5282F23709C7F922B9CBD2DB582FBF1
:10044000992790F9822F8E7F892B8DBD0895FC010D
:10045000738362830895FC01778366830895FC01AA
:100460007583648308950895089580E00895FC01DC
:1004700081850895FC0180850895FC018781089598
:10048000FC0186810895FC01409595854923642BE4
:1004900065870895FC0164870895FC0163870895CA
:1004A000FC0162870895FC0164830895FC01658363
:1004B0000895FC012281338123303105D1F381E09D
:1004C0000895CF93DF93EC01E881F9810280F381F5
:1004D000E02DCE0109958823B9F3DF91CF910895DE
:1004E00081E008950E94FB19DF92EF92FF920F9333
:1004F0001F93CF93DF93EC017B018A01E881F9819F
:100500000280F381E02D0995D82E8823F1F0E114C3
:10051000F104C9F001151105B1F09A8D492F50E091
:1005200043505109F801208130E02417350714F0B9
:1005300094509083F801408150E0BE01615E7F4F8E
:10054000C7010E94001A1BAE1A8E8D2DDF91CF912C
:100550001F910F91FF90EF90DF9008951F920F92DF
:100560000FB60F9211242F933F934F935F936F9386
:100570007F938F939F93AF93BF93EF93FF938BE7FB
:1005800093E00E941001FF91EF91BF91AF919F9175
:100590008F917F916F915F914F913F912F910F902C
:1005A0000FBE0F901F9018951F920F920FB60F92CB
:1005B00011242F938F939F93EF93FF93E0918B03DD
:1005C000F0918C038081E0919103F091920382FD80
:1005D00012C09081809194038F5F8F732091950357
:1005E000821751F0E0919403F0E0E558FC4F958FAD
:1005F0008093940301C08081FF91EF919F918F912F
:100600002F910F900FBE0F901F9018951F93CF93AF
:10061000DF93282F30E0F901EC57FF4F8491F90167
:10062000E653FF4FD491F901EA54FF4FC491CC2314
:10063000C9F0162F81110E94A401EC2FF0E0EE0FFB
:10064000FF1FEE55FF4FA591B4918FB7F89411118C
:1006500005C09C91ED2FE095E92302C0EC91ED2BB4
:10066000EC938FBFDF91CF911F910895CF93DF93CC
:10067000FC01228133812230310569F0EC01638D68
:10068000818D0E94060360E0888D0E94060382E04F
:1006900090E09B838A83DF91CF910895EF92FF9240
:1006A0000F931F93CF93DF931F92CDB7DEB77C01DB
:1006B000162F0FB7F89460E0DC0157968C914983B0
:1006C0000E940603F70185899689DC01ED91FC9172
:1006D0000190F081E02D612F0995182FF701858990
:1006E0009689DC01ED91FC910190F081E02D49812A
:1006F000642F099561E0F70187890E9406030FBF07
:10070000812F0F90DF91CF911F910F91FF90EF906C
:1007100008950F931F93CF93DF93EC01162F0FB71C
:10072000F89460E08F890E9406038D899E89DC0120
:10073000ED91FC910190F081E02D612F09958D895B
:100740009E89DC01ED91FC910190F081E02D60E04B
:100750000995182F61E08F890E9406030FBF812F32
:10076000DF91CF911F910F9108950F931F93CF9316
:10077000DF93EC01162F0FB7F89460E08F890E9489
:1007800006038D899E89DC01ED91FC910190F08139
:10079000E02D612F0995182F61E08F890E940603D3
:1007A0000FBF812FDF91CF911F910F910895CF93AC
:1007B000DF93FC01268137812115310549F0213075
:1007C000310541F02230310539F02330310531F067
:1007D00020E005C024E003C028E001C02CE09CB567
:1007E000937F922B9CBD84819581019709F047C02E
:1007F0008CB580628CBD8281938101978430910594
:1008000028F4FC01EA5DFE4FC08101C0C1E08C2FDD
:100810000E941802DFB7F89480916F03811124C001
:10082000E0ECF0E09491E4EDF0E02491E92FF0E0C9
:10083000EE0FFF1FE455FF4FA591B491EC91E22319
:1008400021F461E08AE00E9406038AE00E94390CEC
:100850008CB580618CBD8CB580648CBD8DE00E94B0
:10086000390C8BE00E94390C80916F038F5F80936D
:100870006F03DFBF8C2FDF91CF910C9418029CB5D2
:100880009F7D9CBDB8CF8F929F92AF92BF92CF9227
:10089000DF92EF92FF926B017C010E94CD014B0130
:1008A0005C01C114D104E104F104F1F00E94CD0116
:1008B000DC01CB0188199909AA09BB09883E93403C
:1008C000A105B10570F321E0C21AD108E108F108D1
:1008D00088EE880E83E0981EA11CB11CC114D104BF
:1008E000E104F10419F7DDCFFF90EF90DF90CF9096
:1008F000BF90AF909F908F900895CF93DF93EC01BE
:100900008D899E89DC01ED91FC910680F781E02DB7
:1009100009958F890E94390C61E08F890E94060336
:1009200064E670E080E090E00E94430481E0DF91A3
:10093000CF9108952FB7F894609173037091740369
:1009400080917503909176032FBF08958F929F92A7
:10095000AF92BF92CF92DF92EF92FF92CF93DF934D
:10096000EC016B010E949A044B015C01E12CF12C1B
:100970000E949A04DC01CB0188199909AA09BB09D4
:100980008C159D05AE05BF0530F48A819B810397C8
:1009900079F381E001C080E0DF91CF91FF90EF908B
:1009A000DF90CF90BF90AF909F908F9008958F92DF
:1009B0009F92AF92BF92CF92DF92EF92FF92CF932E
:1009C000DF93EC016B010E949A044B015C01E12C66
:1009D000F12C0E949A04DC01CB0188199909AA091B
:1009E000BB098C159D05AE05BF0550F4E881F98162
:1009F0000280F381E02DCE010995882351F301C0D7
:100A000080E0DF91CF91FF90EF90DF90CF90BF908B
:100A1000AF909F908F9008951F920F920FB60F92F4
:100A200011242F933F938F939F93AF93BF93809104
:100A3000730390917403A0917503B0917603309184
:100A4000720323E0230F2D3720F40196A11DB11D61
:100A500005C026E8230F0296A11DB11D2093720345
:100A60008093730390937403A0937503B0937603FC
:100A70008091770390917803A0917903B0917A03E4
:100A80000196A11DB11D8093770390937803A093E5
:100A90007903B0937A03BF91AF919F918F913F916A
:100AA0002F910F900FBE0F901F9018951F920F92CD
:100AB0000FB60F9211242F933F934F935F936F9331
:100AC0007F938F939F93AF93BF93EF93FF93E091A7
:100AD0001801F09119010995FF91EF91BF91AF9124
:100AE0009F918F917F916F915F914F913F912F9146
:100AF0000F900FBE0F901F9018951F920F920FB678
:100B00000F9211242F933F934F935F936F937F9393
:100B10008F939F93AF93BF93EF93FF93E091160151
:100B2000F09117010995FF91EF91BF91AF919F91BE
:100B30008F917F916F915F914F913F912F910F9086
:100B40000FBE0F901F9018956F7160620C944E034A
:100B5000EF92FF920F931F93CF93DF934D3108F0E5
:100B60005AC0142FEC018A858B8F8B858C8F8C85D6
:100B70008D8F8D858E8F50E0CE014F960E94001A8A
:100B80001C5F0FB7F89460E08F890E9406038D897F
:100B90009E89DC01ED91FC910190F081E02D60EBEC
:100BA00009957E01BBE1EB0EF11C115068F08D89B7
:100BB0009E89F70161917F01DC01ED91FC9101902B
:100BC000F081E02D0995F1CF61E08F890E94060345
:100BD0000FBF8A819B810397B9F060E0898D0E94E5
:100BE000060340E367E0CE010E94A405488D426001
:100BF00060E0CE010E94A40561E0898D0E94060399
:100C000083E090E09B838A838B899C8901969C8BEF
:100C10008B8B81E001C080E0DF91CF911F910F911C
:100C2000FF90EF900895CF93DF93FC0122813381F1
:100C30002130310571F0EC0140E060E00E94A40534
:100C400060E0898D0E94060381E090E09B838A83A7
:100C500001C080E0DF91CF910895CF93DF93FC0135
:100C6000228133812230310569F0EC01408D60E052
:100C70000E94A40560E0898D0E94060382E090E056
:100C80009B838A83DF91CF910895DF92EF92FF9249
:100C90000F931F93CF93DF93EC010BAD011178C03D
:100CA0008A819B81039709F47DC08A819B81049787
:100CB00071F0488D436060E0CE010E94A40561E0C0
:100CC000898D0E94060384E090E09B838A8367E11C
:100CD000CE010E94890380FD65C060E6CE010E94BE
:100CE0008903182F813250F062EECE010E94B503C5
:100CF0001BAE1A8ECE010E942D0654C040E467E060
:100D0000CE010E94A405DFB6F89460E08F890E94AE
:100D100006038D899E89DC01ED91FC910190F081A3
:100D2000E02D61E609957E01BBE1EB0EF11C012F80
:100D3000015070F08D899E89DC01ED91FC9101904C
:100D4000F081E02D60E00995F70181937F01F0CFFC
:100D500061E08F890E940603DFBE1A8F143090F085
:100D60008B8D8E838C8D8F838D8D88878E8D8987DB
:100D70008D8181110FC09E818C81981759F08E81D1
:100D80008F3F41F08BAD882319F0CE010E942D06D4
:100D90000BAD08C089899A8901969A8B898B81E06D
:100DA0008BAFF0CF802FDF91CF911F910F91FF90EC
:100DB000EF90DF9008950F931F93CF938C01FC0168
:100DC000828193810397C9F46FEFC8010E94B50334
:100DD000C82F8073C9F3C4FF04C061EEC8010E942C
:100DE000B503C8010E942D0640E367E0C8010E94D8
:100DF000A405C5FB882780F901C080E0CF911F9131
:100E00000F9108951F93CF93DF93EC018D899E89F5
:100E1000DC01ED91FC910684F785E02D60E070E047
:100E20000995CE010E947D04182F811102C010E0A7
:100E300044C0898D0E94390C60E0898D0E940603B0
:100E400040E767E0CE010E94A4054FE36CE1CE01CC
:100E50000E94A40545E06DE1CE010E94A4056DE16C
:100E6000CE010E9489038530B1F4CE010E942D0687
:100E700061EECE010E94B50362EECE010E94B50381
:100E800042E065E0CE010E94A4054FE066E0CE019D
:100E90000E94A40512C043E760E5CE010E944E0304
:100EA00045E06DE1CE010E94A4056DE1CE010E94F6
:100EB0008903853009F0BBCFD8CF812FDF91CF9147
:100EC0001F9108951F920F920FB60F921124CF9287
:100ED000DF92EF92FF920F931F932F933F934F93C5
:100EE0005F936F937F938F939F93AF93BF93CF93B2
:100EF000DF93EF93FF93C0917003D09171038A81C8
:100F00009B81049709F0CAC02F8930E0F901EC57A2
:100F1000FF4F8491F901E653FF4F0491F901EA5420
:100F2000FF4F1491112379F081110E94A401E12F48
:100F3000F0E0EE0FFF1FE856FF4FA591B491EC9142
:100F4000E02381E009F480E081709A8D892719F00F
:100F50009F8D9F5F9F8F9E8D891771F098A190350F
:100F600018F02DE130E002C02BE030E098A1290F0D
:100F7000311D28A38E8F03C088A18C5E88A388A111
:100F8000803A08F4DDC08AA19BA1969587959BA322
:100F90008AA38F8D853028F08AA19BA198609BA39E
:100FA0008AA388A1805A88A31F8E89A1882309F467
:100FB00068C08CA18F5F8CA38C3008F4C1C08AA15B
:100FC0009BA1982F9F73892F86958695887028E01E
:100FD000280F821749F0E82FF0E0E65DFE4F3081E0
:100FE000931719F08F5FF5CF80E020E1829FC00159
:100FF00011242AA13BA196E0369527959A95E1F711
:10100000422F3695279536952795287038E0320F70
:10101000231749F0E22FF0E0E65DFE4F50814517BF
:1010200019F02F5FF5CF20E0822BAE0147595F4FBB
:10103000FA019081DE01A859BF4F9923B1F0FA015E
:10104000908121E0290F20839E01290F311DF90194
:1010500085A3FA0190818C91981788F019A281E0FC
:101060008C8FCE010E9436030AC08C939C919730DE
:1010700008F460C09C91943408F05CC0E0CF1CA2DE
:101080005FC08AA19BA188339B4009F059C081E0D1
:1010900089A31CA2C759DF4F188252C08A819B8145
:1010A000039709F04DC08E0104591F4FF80180814C
:1010B00091E0980F9083811137C07E01FAE6EF0E20
:1010C000F11CF7018081EF56FF4F9081891748F09E
:1010D000CE010E9436038B899C8901969C8B8B8B59
:1010E00023C0FE01E80FF11DE359FF4F608170E05E
:1010F0006E01FBE6CF0ED11CF601808191E0980FC6
:10110000908302C0759567958A95E2F7617077279D
:10111000888D0E940603F6018081863028F01082B7
:10112000F70180818F5F8083F8018081883040F0F3
:10113000108206C019A28F8598890196988B8F8797
:10114000FF91EF91DF91CF91BF91AF919F918F91DF
:101150007F916F915F914F913F912F911F910F91CF
:10116000FF90EF90DF90CF900F900FBE0F901F90E9
:1011700018959091590380E0883071F0E82FF0E0E5
:10118000DF01A25DBC4F1C92EA5CFC4F108210860E
:10119000108A8F5F93E0F0CF9093590390914E03A4
:1011A00080E0891738F4E82FF0E0E15BFC4F108213
:1011B0008F5FF7CF8093580308951F920F920FB659
:1011C0000F9211244F925F926F927F928F929F9213
:1011D000AF92BF92CF92DF92EF92FF920F931F9345
:1011E0002F933F934F935F936F937F938F939F932F
:1011F000AF93BF93EF93FF93CF93DF9300D000D0D3
:10120000CDB7DEB780915A03893008F0C6C080E4BC
:1012100080937C0080917A00806480937A00809132
:101220007A0086FDFCCF609178008091790070E0B3
:10123000782B70936D0360936C030091D40410912C
:10124000D5040431110544F01092D5041092D40451
:1012500081E08093D604A1C08091D60481119DC005
:10126000072E000C880B990B0E9497174B015C010D
:10127000C090D704D090D804E090D904F090DA045C
:101280009B01AC01C701B6010E94F6172B013C017E
:10129000A701960160E070E080E89FE30E94D61805
:1012A0002091DF043091E0044091E1045091E20488
:1012B0000E94F6179B01AC01C301B2010E94D7182E
:1012C0006B017C016093DF047093E0048093E10480
:1012D0009093E2044090DB045090DC046090DD04C5
:1012E0007090DE04A5019401C301B2010E94F617BB
:1012F00069837A838B839C83A301920160E070E011
:1013000080E89FE30E94D6182091E3043091E40422
:101310004091E5045091E6040E94F6179B01AC0150
:1013200069817A818B819C810E94D7182B013C01B5
:101330006093E3047093E4048093E5049093E604DF
:10134000A7019601C501B4010E94D6186093F2046A
:101350007093F3048093F4049093F504A70196012D
:10136000C301B2010E94D6186093F6047093F7048B
:101370008093F8049093F904F801EE0FFF1FEE0F2D
:10138000FF1FEC5CFB4F60837183828393830F5F4D
:101390001F4F1093D5040093D4040F900F900F901B
:1013A0000F90DF91CF91FF91EF91BF91AF919F91FE
:1013B0008F917F916F915F914F913F912F911F91ED
:1013C0000F91FF90EF90DF90CF90BF90AF909F90E4
:1013D0008F907F906F905F904F900F900FBE0F9007
:1013E0001F901895009769F0FC0101900020E9F723
:1013F0003197AF01481B590BBC018BE793E00C946C
:101400009A0080E090E00895CF93DF930E94F20964
:10141000EC0181E992E00E94F2098C0F9D1FDF919F
:10142000CF9108958F929F92AF92BF920F931F9387
:10143000CF93DF93CDB7DEB7A1970FB6F894DEBF99
:101440000FBECDBF19A2423008F44AE08E010F5DF5
:101450001F4F842E912CA12CB12CA50194010E9428
:10146000B418E62FB901CA0101501109EA3014F489
:10147000E05D01C0E95CD801EC93232B242B252BE4
:1014800061F7C8010E94F209A1960FB6F894DEBF79
:101490000FBECDBFDF91CF911F910F91BF90AF9045
:1014A0009F908F900895CF93DF93682F70E080E036
:1014B00090E04AE00E94120AEC0181E992E00E9469
:1014C000F2098C0F9D1FDF91CF9108950C94F209C2
:1014D000E0917B03F0917C030190F081E02D682F77
:1014E0008BE793E00994CF92DF92EF92FF92CF9334
:1014F000DF936C01990FEE08FF08F7FE17C08DE22D
:101500000E94680AEC0166277727CB016C197D09D8
:101510008E099F094AE00E94120A8C0F9D1FDF91DD
:10152000CF91FF90EF90DF90CF9008954AE0C701F0
:10153000B601DF91CF91FF90EF90DF90CF900C94A8
:10154000120A2F923F924F925F926F927F928F92E8
:101550009F92AF92BF92DF92EF92FF920F931F93F1
:10156000CF93DF93CDB7DEB764970FB6F894DEBFA5
:101570000FBECDBF109288041092890410928A0485
:1015800010928B04109284041092850410928604A9
:10159000109287041092EE041092EF041092F0045F
:1015A0001092F10482E08093ED04809118049091F0
:1015B0001904A0911A04B0911B0489839A83AB8308
:1015C000BC8380911C0490911D04A0911E04B091D5
:1015D0001F048D839E83AF83B887809120049091F0
:1015E0002104A0912204B091230489879A87AB87B4
:1015F000BC878091240490912504A0912604B09189
:1016000027048D879E87AF87B88B8091280490919F
:101610002904A0912A04B0912B04898B9A8BAB8B5F
:10162000BC8B412C512C320172E0D72EF4E1DF1635
:1016300009F4BBC02D2C312CF101EE0FFF1FEE0F72
:10164000FF1FEC5CFB4F2081318142815381698116
:101650007A818B819C810E94F6174B015C01F1011C
:10166000EE0FFF1FEE0FFF1FE05DFB4F208131816A
:10167000428153816D817E818F8198850E94F6170A
:101680009B01AC01C501B4010E94D7184B015C015C
:10169000F101EE0FFF1FEE0FFF1FE45DFB4F2081F6
:1016A00031814281538169857A858B859C850E9431
:1016B000F6179B01AC01C501B4010E94D7184B017C
:1016C0005C018101055E1F4FC801880F991F880FBB
:1016D000991FDC01A85EBB4F7D01FD0180829182D4
:1016E000A282B382F101EE0FFF1FEE0FFF1FE05841
:1016F000FB4F20813181428153816D857E858F85AD
:1017000098890E94F6179B01AC01C501B4010E94A3
:10171000D7184B015C01D7016D937D938D939C93FA
:101720001397C101880F991F880F991F84589B4FE9
:10173000FC01208131814281538169897A898B89B9
:101740009C890E94F6179B01AC01C501B4010E945F
:10175000D7184B015C0120E030E0A9010E949017EE
:1017600087FD07C0D7018D929D92AD92BC921397D1
:1017700009C0B7FAB094B7F8B094F70180829182AB
:10178000A282B382000F111F000F111FF801E85E43
:10179000FB4F2081318142815381C301B2010E94FC
:1017A000D7182B013C01D39441CFD092ED0420E017
:1017B00030E040E951E4C301B2010E944319609353
:1017C000EE047093EF048093F0049093F1042DECF9
:1017D0003CEC4CE05FE30E94D7180E94B519CB01A6
:1017E00064960FB6F894DEBF0FBECDBFDF91CF91E8
:1017F0001F910F91FF90EF90DF90BF90AF909F905F
:101800008F907F906F905F904F903F902F900895B2
:10181000CF92DF92EF92FF92CF93DF936C01990FFB
:10182000EE08FF08F7FE12C08DE20E94680AEC0184
:1018300066277727CB016C197D098E099F094AE03D
:101840000E94120A7C01EC0EFD1E06C04AE0C70190
:10185000B6010E94120A7C0181E992E00E94F2091D
:101860008E0D9F1DDF91CF91FF90EF90DF90CF9075
:10187000089590E0FC01E653FF4F2491FC01EA54E7
:10188000FF4F8491882399F090E0880F991FFC0105
:10189000E455FF4FA591B491FC01EE55FF4F8591A2
:1018A00094918FB7F894EC91E22BEC938FBF08954D
:1018B000CF93DF93CDB7DEB76E970FB6F894DEBF48
:1018C0000FBECDBF789484B5826084BD84B581603D
:1018D00084BD85B5826085BD85B5816085BD8091FB
:1018E0006E00816080936E00109281008091810073
:1018F000826080938100809181008160809381006B
:10190000809180008160809380008091B10084602C
:101910008093B1008091B00081608093B00080918D
:101920007A00846080937A0080917A00826080934C
:101930007A0080917A00816080937A0080917A00A9
:10194000806880937A001092C100E0918B03F0913F
:101950008C0382E08083E0918703F09188031082FA
:10196000E0918903F0918A0380E1808310929303D0
:10197000E0918F03F091900396E09083E0918D03C6
:10198000F0918E03808180618083E0918D03F091DE
:101990008E03808188608083E0918D03F0918E03B7
:1019A000808180688083E0918D03F0918E03808137
:1019B0008F7D808390935A0383E00E94390C84E0EA
:1019C0000E94390C61E083E00E94060364E670E047
:1019D00080E090E00E94430460E083E00E94060300
:1019E000109261031092620389E080934E030E947B
:1019F000B90880910501882321F08CE891E00E94CC
:101A0000040A8EE295E00E940207811105C086E972
:101A100091E00E94040A12C041E065E08EE295E088
:101A20000E94A4054FE066E08EE295E00E94A405C6
:101A30006AE070E080E090E00E94430488E290E079
:101A4000A0E0B0E08093160590931705A0931805C9
:101A5000B093190582E890E0A0E0B0E08093FE0426
:101A60009093FF04A0930005B09301058FEA87BD12
:101A700080916E00826080936E00809105018823C2
:101A800021F08BEC91E00E94660A80910501882389
:101A900021F08FE090E00E94730A80910501882375
:101AA00021F08CEA91E00E94660A8091050188236A
:101AB00021F080911A010E94530AACE12A2EB6E06F
:101AC0003B2E00E014E00E949A0460935B03709345
:101AD0005C0380935D0390935E0360931A0570939B
:101AE0001B0580931C0590931D0560930205709360
:101AF0000305809304059093050590915A03809106
:101B0000D604913011F5882309F443C00E94A10A3C
:101B10009093EC048093EB042091E7043091E80467
:101B20002817390724F49093E8048093E704209160
:101B3000E9043091EA048217930724F49093EA04AD
:101B40008093E9040E94080C1EC0882311F10E94B2
:101B5000A10A9093EC048093EB042091E704309168
:101B6000E8042817390724F49093E8048093E704E5
:101B70002091E9043091EA048217930724F49093AA
:101B8000EA048093E9041092D5041092D4041092D0
:101B9000D60440910E0550910F056091100570918B
:101BA00011058091FE049091FF04A0910005B09171
:101BB000010584179507A607B70708F00DC12D8EFC
:101BC000AE01435E5F4FBE016F5F7F4F8EE295E0D7
:101BD0000E947402882381F1298120FF05C081E0E1
:101BE0008093150151E001C050E83A818D8D83301A
:101BF00020F1832F90E0432F417030FF0FC0BC01D4
:101C0000759567957595679560936B033B813093E8
:101C10006A0330E0359527952093140195958795B3
:101C2000817090911401913011F0813031F4413084
:101C300021F44093690301C050E8509368039091E8
:101C40006A0380916B03209115012130C1F5409109
:101C50002605509127056091280570912905403986
:101C600051056105710558F140911A0550911B0508
:101C700060911C0570911D0540932205509323052A
:101C8000609324057093250540910205509103054A
:101C9000609104057091050540930A0550930B056A
:101CA00060930C0570930D0510921301209164034D
:101CB0002F5F2093640360E8862E809215012091A7
:101CC0006903213009F088C0823009F447C028F444
:101CD0008823C1F0813051F17DC0843009F46DC09A
:101CE00008F44BC0853009F075C0809105012827A4
:101CF000209305018BEF91E00E94660A8091050117
:101D000090E066C090931A0180910501882321F02C
:101D10008DEB91E00E94040A80910501882309F46B
:101D200059C080911A010E94530A54C0892F90E033
:101D3000909312018093110180910501882321F075
:101D400087EC91E00E94040A80910501882309F440
:101D500041C080911101909112013AC0109261032B
:101D60001092620330925A030E94B90880910501D3
:101D7000882381F181ED91E028C053E0952E909267
:101D80005A0320E0892F90E0E22FF0E0EA5FFE4F57
:101D9000AC01022E02C0559547950A94E2F74170B6
:101DA00043832F5F283081F72093580380910501EA
:101DB000882381F088ED91E008C080935A038091D8
:101DC0000501882339F08DEE91E00E94040A02C0DB
:101DD0000E94080C10926903F0901301F110F9C5EC
:101DE000E0915A038E2F90E0FC013197EE30F1051F
:101DF00008F0E9C5EC5CFF4F0C94F5198091E704FD
:101E00009091E8042091E9043091EA04821B930B3D
:101E100020911101309112012817390754F41092C2
:101E2000E8041092E7041093EA040093E904FF2405
:101E3000F394F0926703FF2009F4C5C580911A0559
:101E400090911B05A0911C05B0911D0580931E0566
:101E500090931F05A0932005B0932105B4C58091F0
:101E60005803E0915903F0E0EA5FFE4FE80FF11DDF
:101E7000908190936703992381F040911A055091C6
:101E80001B0560911C0570911D0540931E05509324
:101E90001F05609320057093210590916603933090
:101EA00070F08F5F8093580343E0A42EA0925903F3
:101EB000883028F0109258039F5F909366038091BA
:101EC0006603833068F4909159039F5F933018F450
:101ED0009093590305C0109259038F5F8093660356
:101EE00080916603863008F46EC5109258031092F4
:101EF00059031092660367C580910501882321F07C
:101F000089E092E00E94040A87E080935A035BC54F
:101F10009091650380910401981740F51092650334
:101F2000809105018823E1F085E192E00E94660A34
:101F30006091040170E080E090E04AE00E94120AA3
:101F400081E792E00E94660A6091650370E080E09C
:101F500090E04AE00E94120A81E792E00E94660A3D
:101F600084E080935A0382E08093040180916503AA
:101F70008F5F8093650338C480910501882321F029
:101F800084E292E00E94660A8091E7049091E8045E
:101F90002091E9043091EA04821B930B20911101F6
:101FA000309112012817390754F41092E804109266
:101FB000E7041093EA040093E904FF24F394F092F9
:101FC000670380916303882309F448C1FF2081F0EF
:101FD00080911A0590911B05A0911C05B0911D05DB
:101FE00080931E0590931F05A0932005B0932105B3
:101FF00080916203E82FF0E0E15BFC4FF0828F5F9D
:102000008093620391E09093030190914E038913B2
:10201000D7C0809105018823E9F083E392E00E9414
:10202000660A10925803E091580380914E03E81716
:1020300068F4F0E0E15BFC4F808190E00E94730A5D
:10204000809158038F5F80935803EDCF83E992E02E
:102050000E94660A80E0E1E0F0E0EC0FFD1F24E062
:10206000829FE00DF11D11241082118212821382D1
:102070008F5F833081F71092580380915903712C40
:1020800033E0731689F1E12CF12CA72CB12CCC2470
:10209000C394D12CCC0EDD1E34E0739EC00CD11C39
:1020A0001124F701EA0DFB1DE15BFC4F608170E03C
:1020B00080E090E00E9497179B01AC01F6016081DF
:1020C0007181828193810E94D718F60160837183A8
:1020D00082839383F3E0EF0EF11C29E0E216F10412
:1020E00001F7739483E0CCCF80935903B12CE12C9A
:1020F000F12C83E0882EB81471F18B2D90E0FC0157
:10210000ED5DFE4F6F01880F991F880F991FE1E069
:10211000F0E0EC0FFD1FE80FF91F20E030E040E495
:1021200050E460817181828193810E944319AA24C5
:10213000A39420E030E040E05FE30E94EB19181622
:102140000CF0A12CF60180818A1519F0FFEFEF1A2F
:10215000FF0AB394CECFB092580380910501882333
:1021600039F087E392E00E94660AC7010E94730A71
:1021700081E022E0E216F1040CF080E0809303019C
:1021800081111EC090914E03891738F4E82FF0E0BA
:10219000E15BFC4F10828F5FF7CF80935803109262
:1021A00063031092620381E080930201109267033F
:1021B00080910501882321F08BE392E00E94660A5A
:1021C00080910501882321F08FE392E00E94660A46
:1021D00080910501882341F06091620370E080E006
:1021E00090E04AE00E94120A80910501882321F0C4
:1021F00081E792E00E94660A80910301882371F1D1
:102200009091620380914E03981328C0809105013C
:1022100081110BC0109262031092670381E08093DA
:10222000020188E080935A0319C083E492E00E947F
:10223000660A10925803E091580380914E03E81704
:1022400048F7F0E0E15BFC4F808190E00E94730A68
:10225000809158038F5F80935803EDCF80910201E6
:10226000882309F4C1C280916703882309F4BCC2A2
:1022700080916203E82FF0E0E15BFC4F91E09083F6
:102280008F5F809362039093630310920201909397
:10229000640380911A0590911B05A0911C05B091D3
:1022A0001D0580931E0590931F05A0932005B093F4
:1022B000210580910501882309F496C289E492E002
:1022C00091C280910501882321F08DE492E00E9463
:1022D000660A8091E7049091E8042091E904309126
:1022E000EA04821B930B20911101309112012817EF
:1022F000390754F41092E8041092E7041093EA04AA
:102300000093E904FF24F394F092670380910501A0
:10231000882329F18DE592E00E94660A60916103AD
:1023200070E080E090E04AE00E94120A81E692E0CC
:102330000E94660A6091620370E080E090E04AE0EB
:102340000E94120A81E692E00E94660A8091670369
:1023500090E00E94730A81E792E00E94660A8091F1
:102360006203E091610338E0E39FF0011124E80F7C
:10237000F11DEA5CFC4F9091670390838F5F80931F
:102380006203883008F430C289E014C2809161038E
:102390008F5F8093610310926203909105018330F7
:1023A00040F4992321F084E692E00E94660A88E0D6
:1023B00001C2992321F083E792E00E94660A1092FD
:1023C000580380915803883008F0F3C010925903E5
:1023D000C12CD12C7601E0915903709005016090D9
:1023E0005803E33008F0C1C088E0E89FF0011124F1
:1023F000E60DF11DEA5CFC4F608170E080E090E04A
:102400000E9497179B01AC01C701B6010E94D71823
:102410006B017C01772009F4A2C081E792E00E9461
:10242000660AA7019601C701B6010E94F019882328
:1024300019F08FE792E01AC026013701E89477F887
:102440002FEF3FEF4FE75FE7C301B2010E94F019A2
:1024500081110FC02FEF3FEF4FE75FE7C301B201DC
:102460000E94901718162CF483E892E00E94F2095B
:1024700072C02FEF3FEF4FE75FE4C701B6010E9444
:10248000EB1918161CF487E892E0F0CF2FEF3FEF1E
:102490004FE75FECC701B6010E94901787FDF3CFAD
:1024A00020E030E0A901C701B6010E94901787FF24
:1024B00007C08DE20E94680AC701B601905802C0A9
:1024C000C701B6012AE037ED43EA5BE30E94D71863
:1024D0004B015C010E94BC192B013C010E94951725
:1024E0009B01AC01C501B4010E94D6184B015C01EF
:1024F0004AE0C301B2010E94120A8EE20E94680AF9
:1025000020E030E040E251E4C501B4010E94F6173A
:102510002B013C010E94BC194B01A12CB12C4AE0BB
:10252000C501B4010E94120AC501B4010E949517A9
:102530009B01AC01C301B2010E94D61820E030E03B
:1025400040E251E40E94F6170E94BC1980E090E03E
:102550004AE00E94120A81E792E00E94660A809196
:1025600059038F5F8093590336CF862D90E0FC018D
:10257000E25DFC4F5F015524539420E030E040ECD5
:102580005FE3C701B6010E94EB1987FD512CF501ED
:102590005082772041F0E62DF0E0E25DFC4F808133
:1025A00090E00E94080C809158038F5F809358033D
:1025B00008CF109261038AE080935A0381E08093F0
:1025C00003018BE892E00E94660A10925803E091A2
:1025D0005803E83068F4F0E0E25DFC4F808190E061
:1025E0000E94730A809158038F5F80935803EFCF46
:1025F00081E992E00E94F20980910501882309F4A3
:10260000F3C01092580380915803833098F58DE5FC
:1026100092E00E94660A6091580370E080E090E0CA
:102620004AE00E94120A8DE30E94680A1092590340
:10263000809159038830A0F4E091580328E0E29F8C
:10264000F0011124E80FF11DEA5CFC4F808190E05D
:102650000E94730A809159038F5F80935903E8CFDA
:1026600081E992E00E94F209809158038F5F809384
:102670005803C9CF80E0883009F4A1C2282F30E088
:1026800091E0980FF901E55EFE4FD901A25DBC4FC4
:1026900040812C91421398C2892FEDCF8091050182
:1026A000882321F084EF92E00E94660A8091050160
:1026B000882349F0E0916203F0E0E15BFC4F808108
:1026C00090E00E94730A80916203E82FF0E0E15BE2
:1026D000FC4F9081992381F040911A0550911B0580
:1026E00060911C0570911D0540931E0550931F05B8
:1026F00060932005709321058F5F80936203833080
:1027000009F072C0809160038F5F80936003109224
:102710006203833009F068C0109260038BE04AC006
:1027200080910501882321F080EA92E00E94660AE8
:1027300080910501882349F0E0916203F0E0E25DB9
:10274000FC4F808190E00E94730A80916203E82F21
:10275000F0E0E25DFC4F9081992381F040911A05F1
:1027600050911B0560911C0570911D0540931E053D
:1027700050931F0560932005709321058F5F88306B
:1027800019F08093620330C0109262038CE012C093
:1027900080910501882321F087EA92E00E94660A71
:1027A00010926203809161038F5F80936103833095
:1027B00021F48DE080935A0317C08BE080935A0375
:1027C00080910501882381F085EB92E00E94660AE2
:1027D0006091610370E080E090E04AE00E94120A9C
:1027E00081E792E00E94660A80910501882309F43E
:1027F000EAC08091640320C080910501882321F004
:1028000082EC92E00E94660A1092640387E0809353
:102810005A03109262031092610381E080930201D7
:1028200010926303109203010E94B9088091050180
:10283000882309F4C8C080E00E94530AC4C0809174
:10284000640390E0813591050CF4BDC080915F0375
:10285000882309F4A3C080910501882321F081E732
:1028600092E00E94040A80910501882321F08CECFB
:1028700092E00E94040A0E949A046093830370937A
:1028800084038093850390938603E0917B03F0910A
:102890007C030284F385E02D8BE793E0099597FD97
:1028A0000BC08093010180910501882319F18BED04
:1028B00092E00E94040A1EC00E949A04C090830302
:1028C000D0908403E0908503F0908603DC01CB0177
:1028D0008C199D09AE09BF09C0907F03D090800379
:1028E000E0908103F09082038C159D05AE05BF0535
:1028F00060F254C080910501882341F088EE92E097
:102900000E94660A809164030E94530A8BE793E059
:102910000E94780110925803F090580339E03F1557
:1029200040F08BE793E00E94D800F394F0925803B4
:10293000F3CF4091010150E080E0E82FF0E0E25D4C
:10294000FC4F9A01082E02C0359527950A94E2F7AC
:10295000217020838F5F883081F781E080935F034F
:1029600010920001109262031092610310926403AE
:102970008AE080935A0380E0282F30E0F901E15B80
:10298000FC4FD901AD5DBE4F9C9190838F5F83302A
:1029900099F78093580381E08093030180910001AF
:1029A000882389F080910501882321F087EF92E048
:1029B0000E94040A89ED92E00E94040A109200012C
:1029C00081E080935F039091130181E089278093D8
:1029D000130180911A0590911B05A0911C05B091DF
:1029E0001D054091220550912305609124057091A9
:1029F00025054C015D01841A950AA60AB70AB5019E
:102A0000A4018092260590922705A0922805B092F5
:102A10002905C0901E05D0901F05E0902005F0907C
:102A200021058C199D09AE09BF0980932A05909351
:102A30002B05A0932C05B0932D0580910205909154
:102A40000305A0910405B0910505C0900A05D0903A
:102A50000B05E0900C05F0900D054C015D018C1804
:102A60009D08AE08BF0880920E0590920F05A092B7
:102A70001005B0921105C0900605D0900705E090B2
:102A80000805F09009058C199D09AE09BF098093CE
:102A9000120590931305A0931405B093150590911A
:102AA0005A03892F8B7F893021F08BEF890F823079
:102AB000A8F481E0C0901605D0901705E0901805A5
:102AC000F09019054C155D056E057F0508F080E056
:102AD000682F83E09E8F0E9406039E8D913021F027
:102AE00089EF890F8230E0F461E040902A05509030
:102AF0002B0560902C0570902D05C0901605D09088
:102B00001705E0901805F09019054C145D046E044B
:102B10007F0408F060E083E09E8F0E9406039E8D94
:102B200086EF890F823018F0933009F044C080910D
:102B30002A0590912B05A0912C05B0912D058B3085
:102B40009105A105B105B8F1409116055091170501
:102B5000609118057091190584179507A607B707A6
:102B6000A0F485E00E94390C61E085E00E94060334
:102B700061E084E00E94060386E00E94390C61E077
:102B800086E00E94060361E013C085E00E94390CD4
:102B900060E085E00E94060360E084E00E94060396
:102BA00086E00E94390C60E086E00E94060360E047
:102BB00083E00E9406030E949A010C94630D8093A7
:102BC000580385E093E004C08093580388E193E0C4
:102BD0000E94040A84E992E00E94660A60916103FF
:102BE00070E080E090E04AE00E94120A81E692E004
:102BF000F9CD10927E0310927D0388EE93E0A0E061
:102C0000B0E080937F0390938003A0938103B093FF
:102C100082038EE391E090937C0380937B0385ECA9
:102C200090E0909388038093870384EC90E09093E6
:102C30008A038093890380EC90E090938C038093C7
:102C40008B0381EC90E090938E0380938D0382EC54
:102C500090E09093900380938F0386EC90E09093A4
:102C60009203809391031092940310929503109213
:102C700096031092970310926E0510926D051092B4
:102C8000700510926F05109272051092710580E523
:102C900091E090936C0580936B0510923105109232
:102CA00030058FEF80933205809338058093390586
:102CB00010923A0510923B0510923E0510923D0588
:102CC0001092400510923F05109242051092410566
:102CD0008BE695E090934405809343058AE08093CA
:102CE000450584E691E090932F0580932E05109280
:102CF00069058CE08093460588E080934705109233
:102D00001A0510921B0510921C0510921D051092B9
:102D10002A0510922B0510922C0510922D05109269
:102D20002605109227051092280510922905109269
:102D30002205109223051092240510922505109269
:102D40001E0510921F051092200510922105109269
:102D500002051092030510920405109205051092C9
:102D60001205109213051092140510921505109279
:102D70000E0510920F051092100510921105109279
:102D80000A0510920B0510920C0510920D05109279
:102D900006051092070510920805109209058AE9A8
:102DA00099E9A9E1BEE38093D7049093D804A09356
:102DB000D904B093DA0480E090E0A0E4BFE380930C
:102DC000DB049093DC04A093DD04B093DE04109246
:102DD000DF041092E0041092E1041092E2041092D9
:102DE000E3041092E4041092E5041092E604E4E394
:102DF000F4E01192119211921192DF01A45BBF4F86
:102E00001D921D921D921C92139784E0E438F807DE
:102E100081F71092D5041092D4041092D6048FE753
:102E20009AE6ACEBBCE380932C0490932D04A09322
:102E30002E04B0932F048DEC9CECACECBCE380939F
:102E4000300490933104A0933204B093330488E8A3
:102E50009DE7A7E4BEEB8093180490931904A09318
:102E60001A04B0931B0485E894EBA8E0BFE38093B9
:102E70001C0490931D04A0931E04B0931F0488E4C7
:102E80009AEAADEABEEB8093200490932104A093CC
:102E90002204B093230485EE94E5AAEEBFE3809369
:102EA000240490932504A0932604B09327048EE372
:102EB0009AE0ABE5BFEB8093280490932904A0939C
:102EC0002A04B0932B041092E8041092E7048FE0D8
:102ED00097E29093EA048093E9041092ED04109233
:102EE000EE041092EF041092F0041092F10410928C
:102EF000F2041092F3041092F4041092F50410926C
:102F0000F6041092F7041092F8041092F90410924B
:102F1000EC041092EB0480911A0180936A050895E5
:102F20000E94D21708F481E00895E89409C097FB45
:102F30003EF490958095709561957F4F8F4F9F4F90
:102F40009923A9F0F92F96E9BB279395F6958795D4
:102F500077956795B795F111F8CFFAF4BB0F11F497
:102F600060FF1BC06F5F7F4F8F4F9F4F16C088233E
:102F700011F096E911C0772321F09EE8872F762F74
:102F800005C0662371F096E8862F70E060E02AF0B5
:102F90009A95660F771F881FDAF7880F96958795A1
:102FA00097F90895990F0008550FAA0BE0E8FEEF76
:102FB00016161706E807F907C0F012161306E407FD
:102FC000F50798F0621B730B840B950B39F40A26F6
:102FD00061F0232B242B252B21F408950A2609F4D4
:102FE000A140A6958FEF811D811D08950E940918AB
:102FF0000C947A180E946C1838F00E94731820F014
:10300000952311F00C9463180C94691811240C94F6
:10301000AE180E948B1870F3959FC1F3950F50E086
:10302000551F629FF001729FBB27F00DB11D639F7A
:10303000AA27F00DB11DAA1F649F6627B00DA11D20
:10304000661F829F2227B00DA11D621F739FB00DC6
:10305000A11D621F839FA00D611D221F749F332736
:10306000A00D611D231F849F600D211D822F762FCF
:103070006A2F11249F5750409AF0F1F088234AF0AC
:10308000EE0FFF1FBB1F661F771F881F9150504018
:10309000A9F79E3F510580F00C9463180C94AE186C
:1030A0005F3FE4F3983ED4F3869577956795B7959F
:1030B000F795E7959F5FC1F7FE2B880F911D9695B9
:1030C000879597F9089597F99F6780E870E060E029
:1030D00008959FEF80EC089500240A9416161706B1
:1030E00018060906089500240A94121613061406F9
:1030F00005060895092E0394000C11F4882352F05C
:10310000BB0F40F4BF2B11F460FF04C06F5F7F4F13
:103110008F4F9F4F089557FD9058440F551F59F0FA
:103120005F3F71F04795880F97FB991F61F09F3FB4
:1031300079F087950895121613061406551FF2CFDD
:103140004695F1DF08C0161617061806991FF1CF2D
:1031500086957105610508940895E894BB27662754
:103160007727CB0197F90895A1E21A2EAA1BBB1B62
:10317000FD010DC0AA1FBB1FEE1FFF1FA217B30743
:10318000E407F50720F0A21BB30BE40BF50B661F59
:10319000771F881F991F1A9469F76095709580951D
:1031A00090959B01AC01BD01CF0108955058BB27FC
:1031B000AA270E94EE180C947A180E946C1838F016
:1031C0000E94731820F039F49F3F19F426F40C94F0
:1031D00069180EF4E095E7FB0C946318E92F0E9440
:1031E0008B1858F3BA17620773078407950720F006
:1031F00079F4A6F50C94AD180EF4E0950B2EBA2FC9
:10320000A02D0B01B90190010C01CA01A0011124EC
:10321000FF27591B99F0593F50F4503E68F11A1698
:10322000F040A22F232F342F4427585FF3CF469529
:1032300037952795A795F0405395C9F77EF41F164B
:10324000BA0B620B730B840BBAF09150A1F0FF0F15
:10325000BB1F661F771F881FC2F70EC0BA0F621F01
:10326000731F841F48F4879577956795B795F795F1
:103270009E3F08F0B0CF9395880F08F09927EE0F86
:103280009795879508950E9457190C947A180E9473
:10329000731858F00E946C1840F029F45F3F29F031
:1032A0000C94631851110C94AE180C9469180E9478
:1032B0008B1868F39923B1F3552391F3951B550BA4
:1032C000BB27AA2762177307840738F09F5F5F4FF9
:1032D000220F331F441FAA1FA9F335D00E2E3AF038
:1032E000E0E832D091505040E695001CCAF72BD050
:1032F000FE2F29D0660F771F881FBB1F26173707A1
:103300004807AB07B0E809F0BB0B802DBF01FF27D2
:1033100093585F4F3AF09E3F510578F00C94631834
:103320000C94AE185F3FE4F3983ED4F386957795FE
:103330006795B795F7959F5FC9F7880F911D96958B
:10334000879597F90895E1E0660F771F881FBB1FE7
:10335000621773078407BA0720F0621B730B840B94
:10336000BA0BEE1F88F7E09508950E94BC19689487
:10337000B1110C94AE1808950E94931888F09F57CD
:1033800098F0B92F9927B751B0F0E1F0660F771F89
:10339000881F991F1AF0BA95C9F714C0B13091F07F
:1033A0000E94AD18B1E008950C94AD18672F782FE6
:1033B0008827B85F39F0B93FCCF386957795679544
:1033C000B395D9F73EF490958095709561957F4FB0
:1033D0008F4F9F4F08950E94D21708F48FEF0895E2
:1033E0000E94D217880B990B0895EE0FFF1F0590CE
:1033F000F491E02D099481E090E0F8940C94091A7E
:10340000FB01DC0102C001900D9241505040D8F701
:063410000895F894FFCFBF
:103416000113010104010101000000000100000187
:10342600010F00010181F201F201FF00000001001D
:10343600000101010100050004040D0E1315161903
:103446001A1C232526292A2C3234000000003101BB
:103456009A00C9007801FA00D800EC0000000000CC
:1034660011020D020902D703F5012F022B022702D2
:1034760000000000020745067402A805F301610278
:10348600DB06A604D704530250024D024A02430249
:10349600560240023D023A02370213067374617205
:1034A60074206E726600453A202852462966616984
:1034B6006C656420746F20696E6974002020536FF8
:1034C6006C656E6F69642050574D3A20006E6577C3
:1034D6002050574D3A20004E6577204D49433A20FB
:1034E6000052657475726E004E657720534F4E4CD0
:1034F600454E4F494420546573743A200043616C2D
:10350600696272617465204D69630044454255479E
:1035160020546F67676C65200043414C4942524115
:1035260054494E47004C3A20574149545F53544141
:10353600525420004C495354454E20484541444579
:1035460052200041482000206520005248200042B9
:103556003A20004C3A20683D00464820004C49532A
:1035660054454E2053455155454E4345004C3A204F
:10357600002C20005741495420414E414C595A4590
:10358600202000414E414C595A494E472020006E9A
:10359600616E00696E66006F7666004C3A20723D79
:1035A600000D0A004C3A20706C6179696E673D0027
:1035B600504C415920200057616974696E6720702C
:1035C6006C617920004C3A20706C6179696E673DB8
:1035D60020004C3A2052455345542000696E636FD3
:1035E6006D696E6720627974657300636C65616EE0
:1035F6002053657269616C004E756D626572206359
:1036060079636C65732000726571756573742062E9
:1036160079746573004C3A73657175656E636520E0
:10362600636F7272656374004C3A73657175656E8B
:0E363600636520696E636F72726563740000D5
:00000001FF
